{
  "_format": "hh3-artifact-1",
  "contractName": "REKTToken",
  "sourceName": "contracts/REKTToken.sol",
  "abi": [
    {
      "inputs": [
        {
          "internalType": "address",
          "name": "initialOwner",
          "type": "address"
        }
      ],
      "stateMutability": "nonpayable",
      "type": "constructor"
    },
    {
      "inputs": [
        {
          "internalType": "address",
          "name": "spender",
          "type": "address"
        },
        {
          "internalType": "uint256",
          "name": "allowance",
          "type": "uint256"
        },
        {
          "internalType": "uint256",
          "name": "needed",
          "type": "uint256"
        }
      ],
      "name": "ERC20InsufficientAllowance",
      "type": "error"
    },
    {
      "inputs": [
        {
          "internalType": "address",
          "name": "sender",
          "type": "address"
        },
        {
          "internalType": "uint256",
          "name": "balance",
          "type": "uint256"
        },
        {
          "internalType": "uint256",
          "name": "needed",
          "type": "uint256"
        }
      ],
      "name": "ERC20InsufficientBalance",
      "type": "error"
    },
    {
      "inputs": [
        {
          "internalType": "address",
          "name": "approver",
          "type": "address"
        }
      ],
      "name": "ERC20InvalidApprover",
      "type": "error"
    },
    {
      "inputs": [
        {
          "internalType": "address",
          "name": "receiver",
          "type": "address"
        }
      ],
      "name": "ERC20InvalidReceiver",
      "type": "error"
    },
    {
      "inputs": [
        {
          "internalType": "address",
          "name": "sender",
          "type": "address"
        }
      ],
      "name": "ERC20InvalidSender",
      "type": "error"
    },
    {
      "inputs": [
        {
          "internalType": "address",
          "name": "spender",
          "type": "address"
        }
      ],
      "name": "ERC20InvalidSpender",
      "type": "error"
    },
    {
      "inputs": [
        {
          "internalType": "address",
          "name": "owner",
          "type": "address"
        }
      ],
      "name": "OwnableInvalidOwner",
      "type": "error"
    },
    {
      "inputs": [
        {
          "internalType": "address",
          "name": "account",
          "type": "address"
        }
      ],
      "name": "OwnableUnauthorizedAccount",
      "type": "error"
    },
    {
      "anonymous": false,
      "inputs": [
        {
          "indexed": true,
          "internalType": "address",
          "name": "owner",
          "type": "address"
        },
        {
          "indexed": true,
          "internalType": "address",
          "name": "spender",
          "type": "address"
        },
        {
          "indexed": false,
          "internalType": "uint256",
          "name": "value",
          "type": "uint256"
        }
      ],
      "name": "Approval",
      "type": "event"
    },
    {
      "anonymous": false,
      "inputs": [
        {
          "indexed": true,
          "internalType": "address",
          "name": "previousOwner",
          "type": "address"
        },
        {
          "indexed": true,
          "internalType": "address",
          "name": "newOwner",
          "type": "address"
        }
      ],
      "name": "OwnershipTransferred",
      "type": "event"
    },
    {
      "anonymous": false,
      "inputs": [
        {
          "indexed": true,
          "internalType": "address",
          "name": "from",
          "type": "address"
        },
        {
          "indexed": true,
          "internalType": "address",
          "name": "to",
          "type": "address"
        },
        {
          "indexed": false,
          "internalType": "uint256",
          "name": "value",
          "type": "uint256"
        }
      ],
      "name": "Transfer",
      "type": "event"
    },
    {
      "inputs": [],
      "name": "MAX_SUPPLY",
      "outputs": [
        {
          "internalType": "uint256",
          "name": "",
          "type": "uint256"
        }
      ],
      "stateMutability": "view",
      "type": "function"
    },
    {
      "inputs": [
        {
          "internalType": "address",
          "name": "owner",
          "type": "address"
        },
        {
          "internalType": "address",
          "name": "spender",
          "type": "address"
        }
      ],
      "name": "allowance",
      "outputs": [
        {
          "internalType": "uint256",
          "name": "",
          "type": "uint256"
        }
      ],
      "stateMutability": "view",
      "type": "function"
    },
    {
      "inputs": [
        {
          "internalType": "address",
          "name": "spender",
          "type": "address"
        },
        {
          "internalType": "uint256",
          "name": "value",
          "type": "uint256"
        }
      ],
      "name": "approve",
      "outputs": [
        {
          "internalType": "bool",
          "name": "",
          "type": "bool"
        }
      ],
      "stateMutability": "nonpayable",
      "type": "function"
    },
    {
      "inputs": [
        {
          "internalType": "address",
          "name": "account",
          "type": "address"
        }
      ],
      "name": "balanceOf",
      "outputs": [
        {
          "internalType": "uint256",
          "name": "",
          "type": "uint256"
        }
      ],
      "stateMutability": "view",
      "type": "function"
    },
    {
      "inputs": [],
      "name": "decimals",
      "outputs": [
        {
          "internalType": "uint8",
          "name": "",
          "type": "uint8"
        }
      ],
      "stateMutability": "view",
      "type": "function"
    },
    {
      "inputs": [
        {
          "internalType": "address",
          "name": "to",
          "type": "address"
        },
        {
          "internalType": "uint256",
          "name": "amount",
          "type": "uint256"
        }
      ],
      "name": "mint",
      "outputs": [],
      "stateMutability": "nonpayable",
      "type": "function"
    },
    {
      "inputs": [],
      "name": "name",
      "outputs": [
        {
          "internalType": "string",
          "name": "",
          "type": "string"
        }
      ],
      "stateMutability": "view",
      "type": "function"
    },
    {
      "inputs": [],
      "name": "owner",
      "outputs": [
        {
          "internalType": "address",
          "name": "",
          "type": "address"
        }
      ],
      "stateMutability": "view",
      "type": "function"
    },
    {
      "inputs": [],
      "name": "renounceOwnership",
      "outputs": [],
      "stateMutability": "nonpayable",
      "type": "function"
    },
    {
      "inputs": [],
      "name": "symbol",
      "outputs": [
        {
          "internalType": "string",
          "name": "",
          "type": "string"
        }
      ],
      "stateMutability": "view",
      "type": "function"
    },
    {
      "inputs": [],
      "name": "totalSupply",
      "outputs": [
        {
          "internalType": "uint256",
          "name": "",
          "type": "uint256"
        }
      ],
      "stateMutability": "view",
      "type": "function"
    },
    {
      "inputs": [
        {
          "internalType": "address",
          "name": "to",
          "type": "address"
        },
        {
          "internalType": "uint256",
          "name": "value",
          "type": "uint256"
        }
      ],
      "name": "transfer",
      "outputs": [
        {
          "internalType": "bool",
          "name": "",
          "type": "bool"
        }
      ],
      "stateMutability": "nonpayable",
      "type": "function"
    },
    {
      "inputs": [
        {
          "internalType": "address",
          "name": "from",
          "type": "address"
        },
        {
          "internalType": "address",
          "name": "to",
          "type": "address"
        },
        {
          "internalType": "uint256",
          "name": "value",
          "type": "uint256"
        }
      ],
      "name": "transferFrom",
      "outputs": [
        {
          "internalType": "bool",
          "name": "",
          "type": "bool"
        }
      ],
      "stateMutability": "nonpayable",
      "type": "function"
    },
    {
      "inputs": [
        {
          "internalType": "address",
          "name": "newOwner",
          "type": "address"
        }
      ],
      "name": "transferOwnership",
      "outputs": [],
      "stateMutability": "nonpayable",
      "type": "function"
    }
  ],
  "bytecode": "0x608060405234801562000010575f80fd5b5060405162000d8b38038062000d8b833981016040819052620000339162000298565b604080518082018252600480825263149152d560e21b60208084018290528451808601909552918452908301528291600362000070838262000367565b5060046200007f828262000367565b5050506001600160a01b038116620000b157604051631e4fbdf760e01b81525f60048201526024015b60405180910390fd5b620000bc81620000dc565b50620000d5816b033b2e3c9fd0803ce80000006200012d565b5062000455565b600580546001600160a01b038381166001600160a01b0319831681179093556040519116919082907f8be0079c531659141344cd1fd0a4f28419497f9722a3daafe3b4186f6b6457e0905f90a35050565b6001600160a01b038216620001585760405163ec442f0560e01b81525f6004820152602401620000a8565b620001655f838362000169565b5050565b6001600160a01b03831662000197578060025f8282546200018b91906200042f565b90915550620002099050565b6001600160a01b0383165f9081526020819052604090205481811015620001eb5760405163391434e360e21b81526001600160a01b03851660048201526024810182905260448101839052606401620000a8565b6001600160a01b0384165f9081526020819052604090209082900390555b6001600160a01b038216620002275760028054829003905562000245565b6001600160a01b0382165f9081526020819052604090208054820190555b816001600160a01b0316836001600160a01b03167fddf252ad1be2c89b69c2b068fc378daa952ba7f163c4a11628f55a4df523b3ef836040516200028b91815260200190565b60405180910390a3505050565b5f60208284031215620002a9575f80fd5b81516001600160a01b0381168114620002c0575f80fd5b9392505050565b634e487b7160e01b5f52604160045260245ffd5b600181811c90821680620002f057607f821691505b6020821081036200030f57634e487b7160e01b5f52602260045260245ffd5b50919050565b601f82111562000362575f81815260208120601f850160051c810160208610156200033d5750805b601f850160051c820191505b818110156200035e5782815560010162000349565b5050505b505050565b81516001600160401b03811115620003835762000383620002c7565b6200039b81620003948454620002db565b8462000315565b602080601f831160018114620003d1575f8415620003b95750858301515b5f19600386901b1c1916600185901b1785556200035e565b5f85815260208120601f198616915b828110156200040157888601518255948401946001909101908401620003e0565b50858210156200041f57878501515f19600388901b60f8161c191681555b5050505050600190811b01905550565b808201808211156200044f57634e487b7160e01b5f52601160045260245ffd5b92915050565b61092880620004635f395ff3fe608060405234801561000f575f80fd5b50600436106100e5575f3560e01c806370a082311161008857806395d89b411161006357806395d89b41146101d1578063a9059cbb146101d9578063dd62ed3e146101ec578063f2fde38b14610224575f80fd5b806370a0823114610186578063715018a6146101ae5780638da5cb5b146101b6575f80fd5b806323b872dd116100c357806323b872dd1461013c578063313ce5671461014f57806332cb6b0c1461015e57806340c10f1914610171575f80fd5b806306fdde03146100e9578063095ea7b31461010757806318160ddd1461012a575b5f80fd5b6100f1610237565b6040516100fe9190610783565b60405180910390f35b61011a6101153660046107e9565b6102c7565b60405190151581526020016100fe565b6002545b6040519081526020016100fe565b61011a61014a366004610811565b6102e0565b604051601281526020016100fe565b61012e6b033b2e3c9fd0803ce800000081565b61018461017f3660046107e9565b610303565b005b61012e61019436600461084a565b6001600160a01b03165f9081526020819052604090205490565b610184610382565b6005546040516001600160a01b0390911681526020016100fe565b6100f1610395565b61011a6101e73660046107e9565b6103a4565b61012e6101fa36600461086a565b6001600160a01b039182165f90815260016020908152604080832093909416825291909152205490565b61018461023236600461084a565b6103b1565b6060600380546102469061089b565b80601f01602080910402602001604051908101604052809291908181526020018280546102729061089b565b80156102bd5780601f10610294576101008083540402835291602001916102bd565b820191905f5260205f20905b8154815290600101906020018083116102a057829003601f168201915b5050505050905090565b5f336102d48185856103ee565b60019150505b92915050565b5f336102ed858285610400565b6102f885858561047c565b506001949350505050565b61030b6104d9565b6b033b2e3c9fd0803ce80000008161032260025490565b61032c91906108d3565b11156103745760405162461bcd60e51b815260206004820152601260248201527145786365656473206d617820737570706c7960701b60448201526064015b60405180910390fd5b61037e8282610506565b5050565b61038a6104d9565b6103935f61053a565b565b6060600480546102469061089b565b5f336102d481858561047c565b6103b96104d9565b6001600160a01b0381166103e257604051631e4fbdf760e01b81525f600482015260240161036b565b6103eb8161053a565b50565b6103fb838383600161058b565b505050565b6001600160a01b038381165f908152600160209081526040808320938616835292905220545f19811015610476578181101561046857604051637dc7a0d960e11b81526001600160a01b0384166004820152602481018290526044810183905260640161036b565b61047684848484035f61058b565b50505050565b6001600160a01b0383166104a557604051634b637e8f60e11b81525f600482015260240161036b565b6001600160a01b0382166104ce5760405163ec442f0560e01b81525f600482015260240161036b565b6103fb83838361065d565b6005546001600160a01b031633146103935760405163118cdaa760e01b815233600482015260240161036b565b6001600160a01b03821661052f5760405163ec442f0560e01b81525f600482015260240161036b565b61037e5f838361065d565b600580546001600160a01b038381166001600160a01b0319831681179093556040519116919082907f8be0079c531659141344cd1fd0a4f28419497f9722a3daafe3b4186f6b6457e0905f90a35050565b6001600160a01b0384166105b45760405163e602df0560e01b81525f600482015260240161036b565b6001600160a01b0383166105dd57604051634a1406b160e11b81525f600482015260240161036b565b6001600160a01b038085165f908152600160209081526040808320938716835292905220829055801561047657826001600160a01b0316846001600160a01b03167f8c5be1e5ebec7d5bd14f71427d1e84f3dd0314c0f7b2291e5b200ac8c7c3b9258460405161064f91815260200190565b60405180910390a350505050565b6001600160a01b038316610687578060025f82825461067c91906108d3565b909155506106f79050565b6001600160a01b0383165f90815260208190526040902054818110156106d95760405163391434e360e21b81526001600160a01b0385166004820152602481018290526044810183905260640161036b565b6001600160a01b0384165f9081526020819052604090209082900390555b6001600160a01b03821661071357600280548290039055610731565b6001600160a01b0382165f9081526020819052604090208054820190555b816001600160a01b0316836001600160a01b03167fddf252ad1be2c89b69c2b068fc378daa952ba7f163c4a11628f55a4df523b3ef8360405161077691815260200190565b60405180910390a3505050565b5f6020808352835180828501525f5b818110156107ae57858101830151858201604001528201610792565b505f604082860101526040601f19601f8301168501019250505092915050565b80356001600160a01b03811681146107e4575f80fd5b919050565b5f80604083850312156107fa575f80fd5b610803836107ce565b946020939093013593505050565b5f805f60608486031215610823575f80fd5b61082c846107ce565b925061083a602085016107ce565b9150604084013590509250925092565b5f6020828403121561085a575f80fd5b610863826107ce565b9392505050565b5f806040838503121561087b575f80fd5b610884836107ce565b9150610892602084016107ce565b90509250929050565b600181811c908216806108af57607f821691505b6020821081036108cd57634e487b7160e01b5f52602260045260245ffd5b50919050565b808201808211156102da57634e487b7160e01b5f52601160045260245ffdfea264697066735822122080a3893ab27560765726ce0c1e5be880191001190a05c577ad85e4a3d247166864736f6c63430008140033",
  "linkReferences": {},
  "deployedLinkReferences": {},
  "immutableReferences": {},
  "inputSourceName": "project/contracts/REKTToken.sol",
  "buildInfoId": "solc-0_8_20-ea2e4e919ede87e55b829fbb4056a22650427a07"
}