{
  "_format": "hh3-artifact-1",
  "contractName": "RewardDistributor",
  "sourceName": "contracts/RewardDistributor.sol",
  "abi": [
    {
      "inputs": [
        {
          "internalType": "address",
          "name": "_token",
          "type": "address"
        },
        {
          "internalType": "address",
          "name": "initialOwner",
          "type": "address"
        }
      ],
      "stateMutability": "nonpayable",
      "type": "constructor"
    },
    {
      "inputs": [
        {
          "internalType": "address",
          "name": "owner",
          "type": "address"
        }
      ],
      "name": "OwnableInvalidOwner",
      "type": "error"
    },
    {
      "inputs": [
        {
          "internalType": "address",
          "name": "account",
          "type": "address"
        }
      ],
      "name": "OwnableUnauthorizedAccount",
      "type": "error"
    },
    {
      "anonymous": false,
      "inputs": [
        {
          "indexed": true,
          "internalType": "address",
          "name": "agent",
          "type": "address"
        },
        {
          "indexed": false,
          "internalType": "uint256",
          "name": "timestamp",
          "type": "uint256"
        }
      ],
      "name": "AgentRegistered",
      "type": "event"
    },
    {
      "anonymous": false,
      "inputs": [
        {
          "indexed": true,
          "internalType": "address",
          "name": "agent",
          "type": "address"
        },
        {
          "indexed": false,
          "internalType": "uint256",
          "name": "percent",
          "type": "uint256"
        },
        {
          "indexed": false,
          "internalType": "uint256",
          "name": "newReputation",
          "type": "uint256"
        }
      ],
      "name": "AgentSlashed",
      "type": "event"
    },
    {
      "anonymous": false,
      "inputs": [
        {
          "indexed": true,
          "internalType": "address",
          "name": "previousOwner",
          "type": "address"
        },
        {
          "indexed": true,
          "internalType": "address",
          "name": "newOwner",
          "type": "address"
        }
      ],
      "name": "OwnershipTransferred",
      "type": "event"
    },
    {
      "anonymous": false,
      "inputs": [
        {
          "indexed": true,
          "internalType": "address",
          "name": "funder",
          "type": "address"
        },
        {
          "indexed": false,
          "internalType": "uint256",
          "name": "amount",
          "type": "uint256"
        }
      ],
      "name": "PoolFunded",
      "type": "event"
    },
    {
      "anonymous": false,
      "inputs": [
        {
          "indexed": true,
          "internalType": "address",
          "name": "agent",
          "type": "address"
        },
        {
          "indexed": false,
          "internalType": "uint256",
          "name": "amount",
          "type": "uint256"
        },
        {
          "indexed": false,
          "internalType": "uint256",
          "name": "timestamp",
          "type": "uint256"
        }
      ],
      "name": "RewardClaimed",
      "type": "event"
    },
    {
      "anonymous": false,
      "inputs": [
        {
          "indexed": true,
          "internalType": "address",
          "name": "agent",
          "type": "address"
        },
        {
          "indexed": false,
          "internalType": "uint256",
          "name": "score",
          "type": "uint256"
        },
        {
          "indexed": false,
          "internalType": "uint256",
          "name": "reward",
          "type": "uint256"
        },
        {
          "indexed": false,
          "internalType": "uint256",
          "name": "timestamp",
          "type": "uint256"
        }
      ],
      "name": "WorkReported",
      "type": "event"
    },
    {
      "inputs": [
        {
          "internalType": "uint256",
          "name": "",
          "type": "uint256"
        }
      ],
      "name": "agentList",
      "outputs": [
        {
          "internalType": "address",
          "name": "",
          "type": "address"
        }
      ],
      "stateMutability": "view",
      "type": "function"
    },
    {
      "inputs": [
        {
          "internalType": "address",
          "name": "",
          "type": "address"
        }
      ],
      "name": "agents",
      "outputs": [
        {
          "internalType": "address",
          "name": "wallet",
          "type": "address"
        },
        {
          "internalType": "uint256",
          "name": "reputation",
          "type": "uint256"
        },
        {
          "internalType": "uint256",
          "name": "totalEarned",
          "type": "uint256"
        },
        {
          "internalType": "uint256",
          "name": "pendingReward",
          "type": "uint256"
        },
        {
          "internalType": "uint256",
          "name": "tasksCompleted",
          "type": "uint256"
        },
        {
          "internalType": "bool",
          "name": "registered",
          "type": "bool"
        }
      ],
      "stateMutability": "view",
      "type": "function"
    },
    {
      "inputs": [],
      "name": "baseRewardPerTask",
      "outputs": [
        {
          "internalType": "uint256",
          "name": "",
          "type": "uint256"
        }
      ],
      "stateMutability": "view",
      "type": "function"
    },
    {
      "inputs": [],
      "name": "claim",
      "outputs": [],
      "stateMutability": "nonpayable",
      "type": "function"
    },
    {
      "inputs": [
        {
          "internalType": "uint256",
          "name": "amount",
          "type": "uint256"
        }
      ],
      "name": "fundPool",
      "outputs": [],
      "stateMutability": "nonpayable",
      "type": "function"
    },
    {
      "inputs": [
        {
          "internalType": "address",
          "name": "wallet",
          "type": "address"
        }
      ],
      "name": "getAgent",
      "outputs": [
        {
          "components": [
            {
              "internalType": "address",
              "name": "wallet",
              "type": "address"
            },
            {
              "internalType": "uint256",
              "name": "reputation",
              "type": "uint256"
            },
            {
              "internalType": "uint256",
              "name": "totalEarned",
              "type": "uint256"
            },
            {
              "internalType": "uint256",
              "name": "pendingReward",
              "type": "uint256"
            },
            {
              "internalType": "uint256",
              "name": "tasksCompleted",
              "type": "uint256"
            },
            {
              "internalType": "bool",
              "name": "registered",
              "type": "bool"
            }
          ],
          "internalType": "struct RewardDistributor.Agent",
          "name": "",
          "type": "tuple"
        }
      ],
      "stateMutability": "view",
      "type": "function"
    },
    {
      "inputs": [],
      "name": "getAgentCount",
      "outputs": [
        {
          "internalType": "uint256",
          "name": "",
          "type": "uint256"
        }
      ],
      "stateMutability": "view",
      "type": "function"
    },
    {
      "inputs": [],
      "name": "getBalance",
      "outputs": [
        {
          "internalType": "uint256",
          "name": "",
          "type": "uint256"
        }
      ],
      "stateMutability": "view",
      "type": "function"
    },
    {
      "inputs": [
        {
          "internalType": "address",
          "name": "wallet",
          "type": "address"
        }
      ],
      "name": "getPendingReward",
      "outputs": [
        {
          "internalType": "uint256",
          "name": "",
          "type": "uint256"
        }
      ],
      "stateMutability": "view",
      "type": "function"
    },
    {
      "inputs": [],
      "name": "owner",
      "outputs": [
        {
          "internalType": "address",
          "name": "",
          "type": "address"
        }
      ],
      "stateMutability": "view",
      "type": "function"
    },
    {
      "inputs": [],
      "name": "register",
      "outputs": [],
      "stateMutability": "nonpayable",
      "type": "function"
    },
    {
      "inputs": [],
      "name": "renounceOwnership",
      "outputs": [],
      "stateMutability": "nonpayable",
      "type": "function"
    },
    {
      "inputs": [
        {
          "internalType": "address",
          "name": "agent",
          "type": "address"
        },
        {
          "internalType": "uint256",
          "name": "score",
          "type": "uint256"
        },
        {
          "internalType": "uint256",
          "name": "rewardAmount",
          "type": "uint256"
        }
      ],
      "name": "reportWork",
      "outputs": [],
      "stateMutability": "nonpayable",
      "type": "function"
    },
    {
      "inputs": [],
      "name": "rewardToken",
      "outputs": [
        {
          "internalType": "contract IERC20",
          "name": "",
          "type": "address"
        }
      ],
      "stateMutability": "view",
      "type": "function"
    },
    {
      "inputs": [
        {
          "internalType": "uint256",
          "name": "newBase",
          "type": "uint256"
        }
      ],
      "name": "setBaseReward",
      "outputs": [],
      "stateMutability": "nonpayable",
      "type": "function"
    },
    {
      "inputs": [
        {
          "internalType": "address",
          "name": "agent",
          "type": "address"
        },
        {
          "internalType": "uint256",
          "name": "percent",
          "type": "uint256"
        }
      ],
      "name": "slash",
      "outputs": [],
      "stateMutability": "nonpayable",
      "type": "function"
    },
    {
      "inputs": [],
      "name": "totalDistributed",
      "outputs": [
        {
          "internalType": "uint256",
          "name": "",
          "type": "uint256"
        }
      ],
      "stateMutability": "view",
      "type": "function"
    },
    {
      "inputs": [
        {
          "internalType": "address",
          "name": "newOwner",
          "type": "address"
        }
      ],
      "name": "transferOwnership",
      "outputs": [],
      "stateMutability": "nonpayable",
      "type": "function"
    }
  ],
  "bytecode": "0x60a0604052678ac7230489e8000060035534801561001b575f80fd5b50604051610f21380380610f2183398101604081905261003a916100ee565b806001600160a01b03811661006857604051631e4fbdf760e01b81525f600482015260240160405180910390fd5b61007181610084565b50506001600160a01b031660805261011f565b5f80546001600160a01b038381166001600160a01b0319831681178455604051919092169283917f8be0079c531659141344cd1fd0a4f28419497f9722a3daafe3b4186f6b6457e09190a35050565b80516001600160a01b03811681146100e9575f80fd5b919050565b5f80604083850312156100ff575f80fd5b610108836100d3565b9150610116602084016100d3565b90509250929050565b608051610dd561014c5f395f818161022e015281816104a70152818161074d0152610a0c0152610dd55ff3fe608060405234801561000f575f80fd5b5060043610610111575f3560e01c80638da5cb5b1161009e578063efca2eed1161006e578063efca2eed1461020d578063f2fde38b14610216578063f7c618c114610229578063fb3551ff14610250578063fd66091e146102b5575f80fd5b80638da5cb5b146101d957806391cab63e146101e9578063baf66f51146101f1578063da3a5f72146101fa575f80fd5b80632f80c54f116100e45780632f80c54f146101605780634df9d6ba1461018b5780634e71d92d146101b65780634e88564f146101be578063715018a6146101d1575f80fd5b806302fb4d85146101155780630373a23a1461012a57806312065fe01461013d5780631aa3a00814610158575b5f80fd5b610128610123366004610c64565b610340565b005b610128610138366004610c8c565b610483565b610145610490565b6040519081526020015b60405180910390f35b61012861051d565b61017361016e366004610c8c565b610672565b6040516001600160a01b03909116815260200161014f565b610145610199366004610ca3565b6001600160a01b03165f9081526001602052604090206003015490565b61012861069a565b6101286101cc366004610cc3565b61083b565b6101286109d7565b5f546001600160a01b0316610173565b600254610145565b61014560035481565b610128610208366004610c8c565b6109ea565b61014560045481565b610128610224366004610ca3565b610aee565b6101737f000000000000000000000000000000000000000000000000000000000000000081565b61026361025e366004610ca3565b610b2b565b60405161014f919081516001600160a01b031681526020808301519082015260408083015190820152606080830151908201526080808301519082015260a09182015115159181019190915260c00190565b6103076102c3366004610ca3565b600160208190525f91825260409091208054918101546002820154600383015460048401546005909401546001600160a01b03909516949293919290919060ff1686565b604080516001600160a01b03909716875260208701959095529385019290925260608401526080830152151560a082015260c00161014f565b610348610bce565b6001600160a01b0382165f9081526001602052604090206005015460ff166103ae5760405162461bcd60e51b81526020600482015260146024820152731059d95b9d081b9bdd081c9959da5cdd195c995960621b60448201526064015b60405180910390fd5b60648111156103f15760405162461bcd60e51b815260206004820152600f60248201526e125b9d985b1a59081c195c98d95b9d608a1b60448201526064016103a5565b6001600160a01b0382165f90815260016020526040902060646104148382610d07565b82600101546104239190610d20565b61042d9190610d37565b600182018190556040516001600160a01b038516917f33ecbd1838b95de3fee74f0a2087b7ad175c89e5c03b32c5c5e4f04d77c0617e9161047691868252602082015260400190565b60405180910390a2505050565b61048b610bce565b600355565b6040516370a0823160e01b81523060048201525f907f00000000000000000000000000000000000000000000000000000000000000006001600160a01b0316906370a0823190602401602060405180830381865afa1580156104f4573d5f803e3d5ffd5b505050506040513d601f19601f820116820180604052508101906105189190610d56565b905090565b335f9081526001602052604090206005015460ff16156105745760405162461bcd60e51b8152602060048201526012602482015271105b1c9958591e481c9959da5cdd195c995960721b60448201526064016103a5565b6040805160c08101825233808252603260208084019182525f8486018181526060860182815260808701838152600160a089018181528886528187528a862099518a546001600160a01b039091166001600160a01b0319918216178b5597518a83015593516002808b0191909155925160038a01559051600489015591516005909701805497151560ff1990981697909717909655855490810186559490527f405787fa12a823e0f2b7631cc41b3ba8828b3321ca811111fa75cd3aa3bb5ace90930180549091168217905591514281527fd1b844701695237443dd884ed7193d9c8788f3befd35adc0910472eb166f3306910160405180910390a2565b60028181548110610681575f80fd5b5f918252602090912001546001600160a01b0316905081565b335f90815260016020526040902060030154806106ec5760405162461bcd60e51b815260206004820152601060248201526f4e6f7468696e6720746f20636c61696d60801b60448201526064016103a5565b335f908152600160205260408120600381018290556002018054839290610714908490610d6d565b925050819055508060045f82825461072c9190610d6d565b909155505060405163a9059cbb60e01b8152336004820152602481018290527f00000000000000000000000000000000000000000000000000000000000000006001600160a01b03169063a9059cbb906044016020604051808303815f875af115801561079b573d5f803e3d5ffd5b505050506040513d601f19601f820116820180604052508101906107bf9190610d80565b6107fd5760405162461bcd60e51b815260206004820152600f60248201526e151c985b9cd9995c8819985a5b1959608a1b60448201526064016103a5565b6040805182815242602082015233917ff01da32686223933d8a18a391060918c7f11a3648639edd87ae013e2e273174391015b60405180910390a250565b610843610bce565b6001600160a01b0383165f9081526001602052604090206005015460ff166108a45760405162461bcd60e51b81526020600482015260146024820152731059d95b9d081b9bdd081c9959da5cdd195c995960621b60448201526064016103a5565b60648211156108eb5760405162461bcd60e51b8152602060048201526013602482015272053636f7265206d75737420626520302d31303606c1b60448201526064016103a5565b6001600160a01b0383165f9081526001602081905260408220908101549091906064906109189085610d20565b6109229190610d37565b905080826003015f8282546109379190610d6d565b925050819055506001826004015f8282546109529190610d6d565b90915550506001820154600a90859061096c906009610d20565b6109769190610d6d565b6109809190610d37565b60018301556040805185815260208101839052428183015290516001600160a01b038716917f5d65e8b405397897da8e395bc4db55e37219b1422c6536aed0cc86f071cf957f919081900360600190a25050505050565b6109df610bce565b6109e85f610bfa565b565b6040516323b872dd60e01b8152336004820152306024820152604481018290527f00000000000000000000000000000000000000000000000000000000000000006001600160a01b0316906323b872dd906064016020604051808303815f875af1158015610a5a573d5f803e3d5ffd5b505050506040513d601f19601f82011682018060405250810190610a7e9190610d80565b610abc5760405162461bcd60e51b815260206004820152600f60248201526e151c985b9cd9995c8819985a5b1959608a1b60448201526064016103a5565b60405181815233907f32173d8e51cec3a6fe484b7a1c3febe760cdf96e03d4cca36a43563a4333e83890602001610830565b610af6610bce565b6001600160a01b038116610b1f57604051631e4fbdf760e01b81525f60048201526024016103a5565b610b2881610bfa565b50565b610b696040518060c001604052805f6001600160a01b031681526020015f81526020015f81526020015f81526020015f81526020015f151581525090565b506001600160a01b039081165f90815260016020818152604092839020835160c08101855281549095168552918201549084015260028101549183019190915260038101546060830152600481015460808301526005015460ff16151560a082015290565b5f546001600160a01b031633146109e85760405163118cdaa760e01b81523360048201526024016103a5565b5f80546001600160a01b038381166001600160a01b0319831681178455604051919092169283917f8be0079c531659141344cd1fd0a4f28419497f9722a3daafe3b4186f6b6457e09190a35050565b80356001600160a01b0381168114610c5f575f80fd5b919050565b5f8060408385031215610c75575f80fd5b610c7e83610c49565b946020939093013593505050565b5f60208284031215610c9c575f80fd5b5035919050565b5f60208284031215610cb3575f80fd5b610cbc82610c49565b9392505050565b5f805f60608486031215610cd5575f80fd5b610cde84610c49565b95602085013595506040909401359392505050565b634e487b7160e01b5f52601160045260245ffd5b81810381811115610d1a57610d1a610cf3565b92915050565b8082028115828204841417610d1a57610d1a610cf3565b5f82610d5157634e487b7160e01b5f52601260045260245ffd5b500490565b5f60208284031215610d66575f80fd5b5051919050565b80820180821115610d1a57610d1a610cf3565b5f60208284031215610d90575f80fd5b81518015158114610cbc575f80fdfea26469706673582212206fa242ccb6e4920b3e097d19c1517be6d113e7b879f20defa8a8bd22f4bdb4bf64736f6c63430008140033",
  "linkReferences": {},
  "deployedLinkReferences": {},
  "immutableReferences": {
    "1002": [
      {
        "length": 32,
        "start": 558
      },
      {
        "length": 32,
        "start": 1191
      },
      {
        "length": 32,
        "start": 1869
      },
      {
        "length": 32,
        "start": 2572
      }
    ]
  },
  "inputSourceName": "project/contracts/RewardDistributor.sol",
  "buildInfoId": "solc-0_8_20-ea2e4e919ede87e55b829fbb4056a22650427a07"
}